{
  "txid": "cddf9168b7e3682ab235038c969c26f40233f9fd96e7ed03a0efa2d51aa2d778",
  "hash": "cddf9168b7e3682ab235038c969c26f40233f9fd96e7ed03a0efa2d51aa2d778",
  "version": 1,
  "size": 226,
  "vsize": 226,
  "locktime": 0,
  "vin": [
    {
      "txid": "b6410454d04f955d8a063efbd20f69844ce6680f5186d3974cb93f1f0e2cb12b",
      "vout": 0,
      "scriptSig": {
        "asm": "3045022100afd76a71c54d76bb2ed2e78136169ce4c82f005268e629f3501dab57b2816e8602200cf1f574a2475a3bf469fd2d8a6958ed66b43a1443a813b7dd4b6b746743961a[ALL] 02ca34fa90fbc68d30b8f4090baaa92f9c782261e7de84b435c569a3aa6ba5735d",
        "hex": "483045022100afd76a71c54d76bb2ed2e78136169ce4c82f005268e629f3501dab57b2816e8602200cf1f574a2475a3bf469fd2d8a6958ed66b43a1443a813b7dd4b6b746743961a012102ca34fa90fbc68d30b8f4090baaa92f9c782261e7de84b435c569a3aa6ba5735d"
      },
      "sequence": 4294967295
    }
  ],
  "vout": [
    {
      "value": 0.00016412,
      "n": 0,
      "scriptPubKey": {
        "asm": "OP_DUP OP_HASH160 f7f2bf376e63cf78c58ad26084495c88addf18b0 OP_EQUALVERIFY OP_CHECKSIG",
        "hex": "76a914f7f2bf376e63cf78c58ad26084495c88addf18b088ac",
        "reqSigs": 1,
        "type": "pubkeyhash",
        "addresses": [
          "1Pc2hje5qW62oajtZqayfs83bcSn2EiGbJ"
        ]
      }
    },
    {
      "value": 0.00050000,
      "n": 1,
      "scriptPubKey": {
        "asm": "OP_DUP OP_HASH160 79c1d50cf921481f2f80cd4a13bd190c493a012a OP_EQUALVERIFY OP_CHECKSIG",
        "hex": "76a91479c1d50cf921481f2f80cd4a13bd190c493a012a88ac",
        "reqSigs": 1,
        "type": "pubkeyhash",
        "addresses": [
          "1C6nxuqAmytbXR162nC3Xw2TMsYkQJNw9C"
        ]
      }
    }
  ],
  "hex": "01000000012bb12c0e1f3fb94c97d386510f68e64c84690fd2fb3e068a5d954fd0540441b6000000006b483045022100afd76a71c54d76bb2ed2e78136169ce4c82f005268e629f3501dab57b2816e8602200cf1f574a2475a3bf469fd2d8a6958ed66b43a1443a813b7dd4b6b746743961a012102ca34fa90fbc68d30b8f4090baaa92f9c782261e7de84b435c569a3aa6ba5735dffffffff021c400000000000001976a914f7f2bf376e63cf78c58ad26084495c88addf18b088ac50c30000000000001976a91479c1d50cf921481f2f80cd4a13bd190c493a012a88ac00000000",
  "blockhash": "0000000000000000000f323e45e154c80f3d570cbd02f011863b5446743803a6",
  "confirmations": 8374,
  "time": 1510817380,
  "blocktime": 1510817380
}
